{
  "_format": "hh-sol-artifact-1",
  "contractName": "Token",
  "sourceName": "contracts/Token.sol",
  "abi": [
    {
      "inputs": [],
      "stateMutability": "nonpayable",
      "type": "constructor"
    },
    {
      "anonymous": false,
      "inputs": [
        {
          "indexed": true,
          "internalType": "address",
          "name": "owner",
          "type": "address"
        },
        {
          "indexed": true,
          "internalType": "address",
          "name": "spender",
          "type": "address"
        },
        {
          "indexed": false,
          "internalType": "uint256",
          "name": "value",
          "type": "uint256"
        }
      ],
      "name": "Approval",
      "type": "event"
    },
    {
      "anonymous": false,
      "inputs": [
        {
          "indexed": true,
          "internalType": "address",
          "name": "from",
          "type": "address"
        },
        {
          "indexed": true,
          "internalType": "address",
          "name": "to",
          "type": "address"
        },
        {
          "indexed": false,
          "internalType": "uint256",
          "name": "value",
          "type": "uint256"
        }
      ],
      "name": "Transfer",
      "type": "event"
    },
    {
      "inputs": [
        {
          "internalType": "address",
          "name": "owner",
          "type": "address"
        },
        {
          "internalType": "address",
          "name": "spender",
          "type": "address"
        }
      ],
      "name": "allowance",
      "outputs": [
        {
          "internalType": "uint256",
          "name": "",
          "type": "uint256"
        }
      ],
      "stateMutability": "view",
      "type": "function"
    },
    {
      "inputs": [
        {
          "internalType": "address",
          "name": "spender",
          "type": "address"
        },
        {
          "internalType": "uint256",
          "name": "amount",
          "type": "uint256"
        }
      ],
      "name": "approve",
      "outputs": [
        {
          "internalType": "bool",
          "name": "",
          "type": "bool"
        }
      ],
      "stateMutability": "nonpayable",
      "type": "function"
    },
    {
      "inputs": [
        {
          "internalType": "address",
          "name": "account",
          "type": "address"
        }
      ],
      "name": "balanceOf",
      "outputs": [
        {
          "internalType": "uint256",
          "name": "",
          "type": "uint256"
        }
      ],
      "stateMutability": "view",
      "type": "function"
    },
    {
      "inputs": [
        {
          "internalType": "uint256",
          "name": "amount",
          "type": "uint256"
        }
      ],
      "name": "burn",
      "outputs": [],
      "stateMutability": "nonpayable",
      "type": "function"
    },
    {
      "inputs": [],
      "name": "decimals",
      "outputs": [
        {
          "internalType": "uint8",
          "name": "",
          "type": "uint8"
        }
      ],
      "stateMutability": "view",
      "type": "function"
    },
    {
      "inputs": [
        {
          "internalType": "address",
          "name": "spender",
          "type": "address"
        },
        {
          "internalType": "uint256",
          "name": "subtractedValue",
          "type": "uint256"
        }
      ],
      "name": "decreaseAllowance",
      "outputs": [
        {
          "internalType": "bool",
          "name": "",
          "type": "bool"
        }
      ],
      "stateMutability": "nonpayable",
      "type": "function"
    },
    {
      "inputs": [
        {
          "internalType": "address",
          "name": "spender",
          "type": "address"
        },
        {
          "internalType": "uint256",
          "name": "addedValue",
          "type": "uint256"
        }
      ],
      "name": "increaseAllowance",
      "outputs": [
        {
          "internalType": "bool",
          "name": "",
          "type": "bool"
        }
      ],
      "stateMutability": "nonpayable",
      "type": "function"
    },
    {
      "inputs": [
        {
          "internalType": "address",
          "name": "to",
          "type": "address"
        },
        {
          "internalType": "uint256",
          "name": "amount",
          "type": "uint256"
        }
      ],
      "name": "mint",
      "outputs": [],
      "stateMutability": "nonpayable",
      "type": "function"
    },
    {
      "inputs": [],
      "name": "name",
      "outputs": [
        {
          "internalType": "string",
          "name": "",
          "type": "string"
        }
      ],
      "stateMutability": "view",
      "type": "function"
    },
    {
      "inputs": [],
      "name": "symbol",
      "outputs": [
        {
          "internalType": "string",
          "name": "",
          "type": "string"
        }
      ],
      "stateMutability": "view",
      "type": "function"
    },
    {
      "inputs": [],
      "name": "totalSupply",
      "outputs": [
        {
          "internalType": "uint256",
          "name": "",
          "type": "uint256"
        }
      ],
      "stateMutability": "view",
      "type": "function"
    },
    {
      "inputs": [
        {
          "internalType": "address",
          "name": "to",
          "type": "address"
        },
        {
          "internalType": "uint256",
          "name": "amount",
          "type": "uint256"
        }
      ],
      "name": "transfer",
      "outputs": [
        {
          "internalType": "bool",
          "name": "",
          "type": "bool"
        }
      ],
      "stateMutability": "nonpayable",
      "type": "function"
    },
    {
      "inputs": [
        {
          "internalType": "address",
          "name": "from",
          "type": "address"
        },
        {
          "internalType": "address",
          "name": "to",
          "type": "address"
        },
        {
          "internalType": "uint256",
          "name": "amount",
          "type": "uint256"
        }
      ],
      "name": "transferFrom",
      "outputs": [
        {
          "internalType": "bool",
          "name": "",
          "type": "bool"
        }
      ],
      "stateMutability": "nonpayable",
      "type": "function"
    }
  ],
  "bytecode": "0x60806040523480156200001157600080fd5b506040518060400160405280600781526020017f4d79546f6b656e000000000000000000000000000000000000000000000000008152506040518060400160405280600381526020017f4d544b0000000000000000000000000000000000000000000000000000000000815250816003908051906020019062000096929190620002b9565b508060049080519060200190620000af929190620002b9565b50505033600560006101000a81548173ffffffffffffffffffffffffffffffffffffffff021916908373ffffffffffffffffffffffffffffffffffffffff1602179055506200013233620001086200013860201b60201c565b600a620001169190620004c4565b620f424062000126919062000601565b6200014160201b60201c565b6200071a565b60006012905090565b600073ffffffffffffffffffffffffffffffffffffffff168273ffffffffffffffffffffffffffffffffffffffff161415620001b4576040517f08c379a0000000000000000000000000000000000000000000000000000000008152600401620001ab90620003bc565b60405180910390fd5b620001c860008383620002af60201b60201c565b8060026000828254620001dc91906200040c565b92505081905550806000808473ffffffffffffffffffffffffffffffffffffffff1673ffffffffffffffffffffffffffffffffffffffff168152602001908152602001600020600082825401925050819055508173ffffffffffffffffffffffffffffffffffffffff16600073ffffffffffffffffffffffffffffffffffffffff167fddf252ad1be2c89b69c2b068fc378daa952ba7f163c4a11628f55a4df523b3ef836040516200028f9190620003de565b60405180910390a3620002ab60008383620002b460201b60201c565b5050565b505050565b505050565b828054620002c79062000679565b90600052602060002090601f016020900481019282620002eb576000855562000337565b82601f106200030657805160ff191683800117855562000337565b8280016001018555821562000337579182015b828111156200033657825182559160200191906001019062000319565b5b5090506200034691906200034a565b5090565b5b80821115620003655760008160009055506001016200034b565b5090565b600062000378601f83620003fb565b91507f45524332303a206d696e7420746f20746865207a65726f2061646472657373006000830152602082019050919050565b620003b68162000662565b82525050565b60006020820190508181036000830152620003d78162000369565b9050919050565b6000602082019050620003f56000830184620003ab565b92915050565b600082825260208201905092915050565b6000620004198262000662565b9150620004268362000662565b9250827fffffffffffffffffffffffffffffffffffffffffffffffffffffffffffffffff038211156200045e576200045d620006af565b5b828201905092915050565b6000808291508390505b6001851115620004bb57808604811115620004935762000492620006af565b5b6001851615620004a35780820291505b8081029050620004b3856200070d565b945062000473565b94509492505050565b6000620004d18262000662565b9150620004de836200066c565b92506200050d7fffffffffffffffffffffffffffffffffffffffffffffffffffffffffffffffff848462000515565b905092915050565b600082620005275760019050620005fa565b81620005375760009050620005fa565b81600181146200055057600281146200055b5762000591565b6001915050620005fa565b60ff84111562000570576200056f620006af565b5b8360020a9150848211156200058a5762000589620006af565b5b50620005fa565b5060208310610133831016604e8410600b8410161715620005cb5782820a905083811115620005c557620005c4620006af565b5b620005fa565b620005da848484600162000469565b92509050818404811115620005f457620005f3620006af565b5b81810290505b9392505050565b60006200060e8262000662565b91506200061b8362000662565b9250817fffffffffffffffffffffffffffffffffffffffffffffffffffffffffffffffff0483118215151615620006575762000656620006af565b5b828202905092915050565b6000819050919050565b600060ff82169050919050565b600060028204905060018216806200069257607f821691505b60208210811415620006a957620006a8620006de565b5b50919050565b7f4e487b7100000000000000000000000000000000000000000000000000000000600052601160045260246000fd5b7f4e487b7100000000000000000000000000000000000000000000000000000000600052602260045260246000fd5b60008160011c9050919050565b61183f806200072a6000396000f3fe608060405234801561001057600080fd5b50600436106100cf5760003560e01c806340c10f191161008c57806395d89b411161006657806395d89b4114610226578063a457c2d714610244578063a9059cbb14610274578063dd62ed3e146102a4576100cf565b806340c10f19146101be57806342966c68146101da57806370a08231146101f6576100cf565b806306fdde03146100d4578063095ea7b3146100f257806318160ddd1461012257806323b872dd14610140578063313ce56714610170578063395093511461018e575b600080fd5b6100dc6102d4565b6040516100e99190611488565b60405180910390f35b61010c60048036038101906101079190610f8c565b610366565b604051610119919061146d565b60405180910390f35b61012a610389565b604051610137919061160a565b60405180910390f35b61015a60048036038101906101559190610f3d565b610393565b604051610167919061146d565b60405180910390f35b6101786103c2565b6040516101859190611625565b60405180910390f35b6101a860048036038101906101a39190610f8c565b6103cb565b6040516101b5919061146d565b60405180910390f35b6101d860048036038101906101d39190610f8c565b610402565b005b6101f460048036038101906101ef9190610fc8565b6104a0565b005b610210600480360381019061020b9190610ed8565b6104ad565b60405161021d919061160a565b60405180910390f35b61022e6104f5565b60405161023b9190611488565b60405180910390f35b61025e60048036038101906102599190610f8c565b610587565b60405161026b919061146d565b60405180910390f35b61028e60048036038101906102899190610f8c565b6105fe565b60405161029b919061146d565b60405180910390f35b6102be60048036038101906102b99190610f01565b610621565b6040516102cb919061160a565b60405180910390f35b6060600380546102e39061173a565b80601f016020809104026020016040519081016040528092919081815260200182805461030f9061173a565b801561035c5780601f106103315761010080835404028352916020019161035c565b820191906000526020600020905b81548152906001019060200180831161033f57829003601f168201915b5050505050905090565b6000806103716106a8565b905061037e8185856106b0565b600191505092915050565b6000600254905090565b60008061039e6106a8565b90506103ab85828561087b565b6103b6858585610907565b60019150509392505050565b60006012905090565b6000806103d66106a8565b90506103f78185856103e88589610621565b6103f2919061165c565b6106b0565b600191505092915050565b600560009054906101000a900473ffffffffffffffffffffffffffffffffffffffff1673ffffffffffffffffffffffffffffffffffffffff163373ffffffffffffffffffffffffffffffffffffffff1614610492576040517f08c379a0000000000000000000000000000000000000000000000000000000008152600401610489906115aa565b60405180910390fd5b61049c8282610b7f565b5050565b6104aa3382610cd6565b50565b60008060008373ffffffffffffffffffffffffffffffffffffffff1673ffffffffffffffffffffffffffffffffffffffff168152602001908152602001600020549050919050565b6060600480546105049061173a565b80601f01602080910402602001604051908101604052809291908181526020018280546105309061173a565b801561057d5780601f106105525761010080835404028352916020019161057d565b820191906000526020600020905b81548152906001019060200180831161056057829003601f168201915b5050505050905090565b6000806105926106a8565b905060006105a08286610621565b9050838110156105e5576040517f08c379a00000000000000000000000000000000000000000000000000000000081526004016105dc906115ca565b60405180910390fd5b6105f282868684036106b0565b60019250505092915050565b6000806106096106a8565b9050610616818585610907565b600191505092915050565b6000600160008473ffffffffffffffffffffffffffffffffffffffff1673ffffffffffffffffffffffffffffffffffffffff16815260200190815260200160002060008373ffffffffffffffffffffffffffffffffffffffff1673ffffffffffffffffffffffffffffffffffffffff16815260200190815260200160002054905092915050565b600033905090565b600073ffffffffffffffffffffffffffffffffffffffff168373ffffffffffffffffffffffffffffffffffffffff161415610720576040517f08c379a00000000000000000000000000000000000000000000000000000000081526004016107179061158a565b60405180910390fd5b600073ffffffffffffffffffffffffffffffffffffffff168273ffffffffffffffffffffffffffffffffffffffff161415610790576040517f08c379a0000000000000000000000000000000000000000000000000000000008152600401610787906114ea565b60405180910390fd5b80600160008573ffffffffffffffffffffffffffffffffffffffff1673ffffffffffffffffffffffffffffffffffffffff16815260200190815260200160002060008473ffffffffffffffffffffffffffffffffffffffff1673ffffffffffffffffffffffffffffffffffffffff168152602001908152602001600020819055508173ffffffffffffffffffffffffffffffffffffffff168373ffffffffffffffffffffffffffffffffffffffff167f8c5be1e5ebec7d5bd14f71427d1e84f3dd0314c0f7b2291e5b200ac8c7c3b9258360405161086e919061160a565b60405180910390a3505050565b60006108878484610621565b90507fffffffffffffffffffffffffffffffffffffffffffffffffffffffffffffffff811461090157818110156108f3576040517f08c379a00000000000000000000000000000000000000000000000000000000081526004016108ea9061150a565b60405180910390fd5b61090084848484036106b0565b5b50505050565b600073ffffffffffffffffffffffffffffffffffffffff168373ffffffffffffffffffffffffffffffffffffffff161415610977576040517f08c379a000000000000000000000000000000000000000000000000000000000815260040161096e9061156a565b60405180910390fd5b600073ffffffffffffffffffffffffffffffffffffffff168273ffffffffffffffffffffffffffffffffffffffff1614156109e7576040517f08c379a00000000000000000000000000000000000000000000000000000000081526004016109de906114aa565b60405180910390fd5b6109f2838383610ea4565b60008060008573ffffffffffffffffffffffffffffffffffffffff1673ffffffffffffffffffffffffffffffffffffffff16815260200190815260200160002054905081811015610a78576040517f08c379a0000000000000000000000000000000000000000000000000000000008152600401610a6f9061152a565b60405180910390fd5b8181036000808673ffffffffffffffffffffffffffffffffffffffff1673ffffffffffffffffffffffffffffffffffffffff16815260200190815260200160002081905550816000808573ffffffffffffffffffffffffffffffffffffffff1673ffffffffffffffffffffffffffffffffffffffff168152602001908152602001600020600082825401925050819055508273ffffffffffffffffffffffffffffffffffffffff168473ffffffffffffffffffffffffffffffffffffffff167fddf252ad1be2c89b69c2b068fc378daa952ba7f163c4a11628f55a4df523b3ef84604051610b66919061160a565b60405180910390a3610b79848484610ea9565b50505050565b600073ffffffffffffffffffffffffffffffffffffffff168273ffffffffffffffffffffffffffffffffffffffff161415610bef576040517f08c379a0000000000000000000000000000000000000000000000000000000008152600401610be6906115ea565b60405180910390fd5b610bfb60008383610ea4565b8060026000828254610c0d919061165c565b92505081905550806000808473ffffffffffffffffffffffffffffffffffffffff1673ffffffffffffffffffffffffffffffffffffffff168152602001908152602001600020600082825401925050819055508173ffffffffffffffffffffffffffffffffffffffff16600073ffffffffffffffffffffffffffffffffffffffff167fddf252ad1be2c89b69c2b068fc378daa952ba7f163c4a11628f55a4df523b3ef83604051610cbe919061160a565b60405180910390a3610cd260008383610ea9565b5050565b600073ffffffffffffffffffffffffffffffffffffffff168273ffffffffffffffffffffffffffffffffffffffff161415610d46576040517f08c379a0000000000000000000000000000000000000000000000000000000008152600401610d3d9061154a565b60405180910390fd5b610d5282600083610ea4565b60008060008473ffffffffffffffffffffffffffffffffffffffff1673ffffffffffffffffffffffffffffffffffffffff16815260200190815260200160002054905081811015610dd8576040517f08c379a0000000000000000000000000000000000000000000000000000000008152600401610dcf906114ca565b60405180910390fd5b8181036000808573ffffffffffffffffffffffffffffffffffffffff1673ffffffffffffffffffffffffffffffffffffffff1681526020019081526020016000208190555081600260008282540392505081905550600073ffffffffffffffffffffffffffffffffffffffff168373ffffffffffffffffffffffffffffffffffffffff167fddf252ad1be2c89b69c2b068fc378daa952ba7f163c4a11628f55a4df523b3ef84604051610e8b919061160a565b60405180910390a3610e9f83600084610ea9565b505050565b505050565b505050565b600081359050610ebd816117db565b92915050565b600081359050610ed2816117f2565b92915050565b600060208284031215610eea57600080fd5b6000610ef884828501610eae565b91505092915050565b60008060408385031215610f1457600080fd5b6000610f2285828601610eae565b9250506020610f3385828601610eae565b9150509250929050565b600080600060608486031215610f5257600080fd5b6000610f6086828701610eae565b9350506020610f7186828701610eae565b9250506040610f8286828701610ec3565b9150509250925092565b60008060408385031215610f9f57600080fd5b6000610fad85828601610eae565b9250506020610fbe85828601610ec3565b9150509250929050565b600060208284031215610fda57600080fd5b6000610fe884828501610ec3565b91505092915050565b610ffa816116c4565b82525050565b600061100b82611640565b611015818561164b565b9350611025818560208601611707565b61102e816117ca565b840191505092915050565b600061104660238361164b565b91507f45524332303a207472616e7366657220746f20746865207a65726f206164647260008301527f65737300000000000000000000000000000000000000000000000000000000006020830152604082019050919050565b60006110ac60228361164b565b91507f45524332303a206275726e20616d6f756e7420657863656564732062616c616e60008301527f63650000000000000000000000000000000000000000000000000000000000006020830152604082019050919050565b600061111260228361164b565b91507f45524332303a20617070726f766520746f20746865207a65726f20616464726560008301527f73730000000000000000000000000000000000000000000000000000000000006020830152604082019050919050565b6000611178601d8361164b565b91507f45524332303a20696e73756666696369656e7420616c6c6f77616e63650000006000830152602082019050919050565b60006111b860268361164b565b91507f45524332303a207472616e7366657220616d6f756e742065786365656473206260008301527f616c616e636500000000000000000000000000000000000000000000000000006020830152604082019050919050565b600061121e60218361164b565b91507f45524332303a206275726e2066726f6d20746865207a65726f2061646472657360008301527f73000000000000000000000000000000000000000000000000000000000000006020830152604082019050919050565b600061128460258361164b565b91507f45524332303a207472616e736665722066726f6d20746865207a65726f20616460008301527f64726573730000000000000000000000000000000000000000000000000000006020830152604082019050919050565b60006112ea60248361164b565b91507f45524332303a20617070726f76652066726f6d20746865207a65726f2061646460008301527f72657373000000000000000000000000000000000000000000000000000000006020830152604082019050919050565b600061135060228361164b565b91507f4f6e6c79206f776e65722063616e20706572666f726d2074686973206163746960008301527f6f6e0000000000000000000000000000000000000000000000000000000000006020830152604082019050919050565b60006113b660258361164b565b91507f45524332303a2064656372656173656420616c6c6f77616e63652062656c6f7760008301527f207a65726f0000000000000000000000000000000000000000000000000000006020830152604082019050919050565b600061141c601f8361164b565b91507f45524332303a206d696e7420746f20746865207a65726f2061646472657373006000830152602082019050919050565b611458816116f0565b82525050565b611467816116fa565b82525050565b60006020820190506114826000830184610ff1565b92915050565b600060208201905081810360008301526114a28184611000565b905092915050565b600060208201905081810360008301526114c381611039565b9050919050565b600060208201905081810360008301526114e38161109f565b9050919050565b6000602082019050818103600083015261150381611105565b9050919050565b600060208201905081810360008301526115238161116b565b9050919050565b60006020820190508181036000830152611543816111ab565b9050919050565b6000602082019050818103600083015261156381611211565b9050919050565b6000602082019050818103600083015261158381611277565b9050919050565b600060208201905081810360008301526115a3816112dd565b9050919050565b600060208201905081810360008301526115c381611343565b9050919050565b600060208201905081810360008301526115e3816113a9565b9050919050565b600060208201905081810360008301526116038161140f565b9050919050565b600060208201905061161f600083018461144f565b92915050565b600060208201905061163a600083018461145e565b92915050565b600081519050919050565b600082825260208201905092915050565b6000611667826116f0565b9150611672836116f0565b9250827fffffffffffffffffffffffffffffffffffffffffffffffffffffffffffffffff038211156116a7576116a661176c565b5b828201905092915050565b60006116bd826116d0565b9050919050565b60008115159050919050565b600073ffffffffffffffffffffffffffffffffffffffff82169050919050565b6000819050919050565b600060ff82169050919050565b60005b8381101561172557808201518184015260208101905061170a565b83811115611734576000848401525b50505050565b6000600282049050600182168061175257607f821691505b602082108114156117665761176561179b565b5b50919050565b7f4e487b7100000000000000000000000000000000000000000000000000000000600052601160045260246000fd5b7f4e487b7100000000000000000000000000000000000000000000000000000000600052602260045260246000fd5b6000601f19601f8301169050919050565b6117e4816116b2565b81146117ef57600080fd5b50565b6117fb816116f0565b811461180657600080fd5b5056fea2646970667358221220eb133e568ea7c35d2712c1e05bb494f0b545c4ba40c31a7f74365e5ebed677c064736f6c63430008000033",
  "linkReferences": {},
  "deployedLinkReferences": {}
}